:020000040000FA
:02000000FE2FD1
:100F1C0083169F0183129F01073099008316990154
:100F2C00083085008312850183168101F23083120B
:100F3C0098006430F3000030F400F430F500013018
:100F4C00F60005160630F2001330F100AD30F0005B
:100F5C00F00BAE2FF10BAE2FF20BAE2FB52F831281
:100F6C00051218140130F7070318F80A0030F807B7
:100F7C0074087802031DC42F73087702031CC72F53
:100F8C00C82FFB2F83121810F701F80105158230BA
:100F9C00F100DD30F000F00BD12FF10BD12FD62F5B
:100FAC00F901FA01EE2F8312851DDD2FDE2FDF2FC5
:100FBC00F82F0D30F100FB30F000F00BE32FF10BAC
:100FCC00E32FE82F0130F9070318FA0A0030FA076B
:100FDC0076087A02031DF42F75087902031CF72F8B
:100FEC00F82FD92F8312051118146300B82F00287D
:040FFC0083018E2FB0
:02400E00C438B4
:00000001FF
